:0300000002086E85
:0C086E00787FE4F6D8FD758107020800D1
:04084A007FD07E07D6
:10084E00E4FDFCC3ED9FEC9E5015E4FBFA0BBB00E0
:0F085E00010AEB647B4A70F50DBD00010C80E4CC
:01086D002268
:03087A008F90223A
:10080000790875A0FF7FFF12087A7590FFD286D213
:100810008712084A20B2FD7F147E0012084E20B2D3
:10082000F389A0E94410F59012084AC28689901213
:10083000084ED286E94410F5902087FD3087FD12DE
:0A084000084A75A0FF7590FF80CAFA
:00000001FF
